:020000041000EA
:1000000000B5324B212058609868022188439860DF
:10001000D860186158612E4B002199600221596106
:100020000121F02299502B49196001219960352056
:1000300000F044F80222904214D00621196600F024
:1000400034F8196E01211966002018661A6600F04E
:100050002CF8196E196E196E052000F02FF8012189
:100060000842F9D1002199601B49196000215960AB
:100070001A491B48016001219960EB211966A021F2
:10008000196600F012F800219960164914480160C1
:100090000121996001BC002800D000471248134993
:1000A000086003C880F30888084703B5996A0420EC
:1000B0000142FBD001200142F8D103BD02B5186610
:1000C0001866FFF7F2FF186E186E02BD00000240BE
:1000D000000000180000070000035F00212200005C
:1000E000F4000018222000A00001001008ED00E03C
:1000F00000000000000000000000000074B24E7A12
:1001000000200420F7010010C3010010C5010010F9
:10011000C1010010C1010010C1010010C101001097
:10012000C1010010C1010010C1010010C701001081
:10013000C1010010C1010010C9010010CB01001065
:10014000CD010010CD010010CD010010CD01001037
:10015000CD010010CD010010CD010010CD01001027
:10016000CD010010CD010010CD010010CD01001017
:10017000CD010010CD010010CD010010CD01001007
:10018000CD010010CD010010CD010010CD010010F7
:10019000CD010010CD010010CD010010CD010010E7
:1001A000CD010010CD010010CD010010CD010010D7
:1001B000CD010010CD010010CD010010CD010010C7
:1001C00000BE00BE00BE00BE00BE00BEEFF3058054
:1001D000103800BEF2EB8871309500105895001071
:1001E0003402001090A31AE700201F49086006C8D7
:1001F00081F3088810471D48006800282FD10DA4FE
:100200000ECC002902D000F012F8F9E71849194A7B
:10021000002000E001C19142FCD1174988471749ED
:1002200088471749884700BEFDE701C901C29A42C5
:10023000FBD3704758950010C00000208C0B0020A5
:1002400024A00010000004200000042024A00010BE
:10025000001004200010042000000000704709482E
:1002600004F0E6FD0047000008ED00E0000000D0CB
:10027000900B0020B80F0020B93B001005030010C0
:10028000753B00105756000006005250ABB3605348
:10029000FC93001006005250861C03020C940010C0
:1002A000060052505422A29D249400100500525082
:1002B000DE65F46824A00010F8B5C04610B5064C01
:1002C0002378002B07D1054B002B02D0044800E017
:1002D00000BF0123237010BD900C0020000000001F
:1002E00020770010044B10B5002B03D003490448BD
:1002F00000E000BF10BDC04600000000940C0020CC
:100300002077001030B589B006F08AFA114806F05F
:100310004BFA01F013FC0028FBD106AA05A907A897
:1003200001F098FC079806F039F804000D000698D3
:1003300006F034F802900391059806F02FF800902B
:10034000019122002B00044806F05EFA0A2002F018
:100350007BFDE2E72077001044770010F0B5CE4631
:10036000474680B583B081460C001E001700531C21
:100370009846180006F0CCF805000470012204E04D
:10038000B418013C2378AB5401329742F8DA0023C9
:10039000009343462A0049460A4806F009FD040036
:1003A000280006F0C7F8002C07D0A31C07D00020B7
:1003B00003B0C0BCB946B046F0BDFF20F8E7FF204F
:1003C000F6E7C04628030020F0B585B0040016000B
:1003D0001D000F226A441170084F01230093010091
:1003E000380006F0E5FC0023009333002A002100CA
:1003F000380006F0E9FC002005B0F0BD280300201D
:1004000070B50400C5783F2028406378DB0708D525
:10041000C008072129400131074B1B68002B00D081
:10042000984763781B0705D5034B5B68002B01D009
:10043000A8099847002070BD640D002010B58022E7
:10044000C823D2000249034801F07AFA10BDC04621
:1004500098770010F60B0000F0B587B0040003A8F1
:100460003D4B1A8802809B78837002A93B4B1A8807
:100470000A809B788B7001AB394A15881D80927871
:100480009A70384B1A886D462A809B78AB7003238C
:100490001E002640855D05AA1570E5081D40475DD4
:1004A0005770A7093B40C05C90708E5D04A8067031
:1004B0004D5D4570CB5C837003212B4801F0C8F97A
:1004C00000283CD104AA0321284801F0C1F90028E2
:1004D00038D105AB01AA1188198092789A7003224D
:1004E000694604A806F038F8630705D505AB37223E
:1004F0001A7004AB103A1A70A30605D505AB572243
:100500005A7004AB103A5A70E30505D505AB772253
:100510009A7004AB103A9A70882005AA0321C00093
:1005200001F096F9002810D104AA0321104801F027
:100530008FF900280CD10F4B1C8107B0F0BD0120B2
:100540004042FAE701204042F7E701204042F4E749
:1005500001204042F1E7C046607700106477001048
:10056000687700106C770010260400002A04000051
:1005700031040000640D002030B587B0040003AAE8
:10058000154B23CB23C2C82C1CD82100C82004F053
:100590007BFC83B2013B9BB21A0A69460A714B711C
:1005A00001AA02210D4801F053F900280DD103AA38
:1005B0000C210B4801F04CF9002809D1094B9C8112
:1005C00007B030BD01204042FAE701204042F7E782
:1005D00001204042F4E7C046707700101602000088
:1005E000C10A0000640D002070B582B0040008004C
:1005F000630700D1AAE0C823DB00994200D9A8E034
:1006000005F09CFE594905F07AFE051C6B46DE1C80
:10061000300000F01DFD3378082B4BD016D8022B8C
:1006200029D0042B0FD18C21C905281C05F07DFE93
:1006300005F0ACFE86B24E49281C05F076FE05F0AA
:10064000A5FE80B226E00120404231E0102B0FD100
:100650008A21C905281C05F068FE05F097FE86B2C0
:100660004449281C05F061FE05F090FE80B211E0BF
:10067000012040421CE08D21C905281C05F055FED3
:1006800005F084FE86B23C49281C05F04EFE05F0BC
:100690007DFE80B2320A01AB1A705E70020A9A7057
:1006A000D870E30716D4A30728D463073AD40020F0
:1006B00002B070BD8B21C905281C05F036FE05F07F
:1006C00065FE86B22D49281C05F02FFE05F05EFE62
:1006D00080B2DFE7EA2001AA0221400001F0B8F869
:1006E000002839D192306B469A1D0221400001F05A
:1006F000AFF80028D7D001204042D9E7EC2001AA6A
:100700000221400001F0A4F8002828D194306B4663
:100710009A1D0221400001F09BF80028C5D001205D
:100720004042C5E7EE2001AA0221400001F090F806
:10073000002817D196306B469A1D0221400001F027
:1007400087F80028B4D001204042B1E701204042A0
:10075000AEE701204042ABE701204042A8E701207C
:100760004042A5E701204042A2E7C04600004843BE
:100770000000C0450000C044000040460000404565
:1007800000B583B06B460022DA71C30702D56B4611
:100790003032DA71830705D56B46DA1DDB790C211F
:1007A0000B431370430705D56B46DA1DDB79032134
:1007B0000B431370A4206B46DA1D0121400001F0A9
:1007C00047F803B000BD00B583B0002803D004286B
:1007D00002D9042000E0012001386B46DA1D1070B8
:1007E00050200121FF3001F033F803B000BD00B507
:1007F00083B0052104F070FB80B2030A6A461371CE
:100800005071EF2001AA0221400001F021F803B04D
:1008100000BD00B583B0052104F05EFB80B2030A81
:100820006A4613715071ED2001AA0221400001F0C7
:100830000FF803B000BD10B582B00C00FA2189009A
:1008400004F022FB6043030E01AA137003145370DB
:1008500003129370D070AE200421400000F0F8FF26
:1008600002B010BD00B583B0052104F035FB80B2A5
:10087000030A6A4613715071AD2001AA022140009B
:1008800000F0E6FF03B000BD00B583B0052104F021
:1008900023FB80B2030A6A4613715071AC2001AA8F
:1008A0000221400000F0D4FF03B000BD10B584B0B9
:1008B00000280DD001AA0D4B110011CB11C11B78DE
:1008C0000B7097200921C00000F0C2FF04B010BDDA
:1008D00001AA074B110011CB11C11B780B70972097
:1008E0000921C00000F0B4FFF0E7C0468077001097
:1008F0008C77001000B583B0002811D001ABC02266
:100900001A7002325A7002329A700232DA7001AAF8
:100910000421054800F09CFF00F04EFA03B000BD32
:10092000024B0193F3E7C046980A00008B8B8B8B38
:1009300000B583B0002811D001AB20221A70083214
:100940005A7008329A700832DA7001AA04210548F8
:1009500000F07EFF00F030FA03B000BD024B0193BF
:10096000F3E7C0469E0A0000A3A3A3A3F0B5C646C2
:1009700000B584B0040001AD02232B70C8336B7046
:100980001933AB70DA3BEB702A000421682000F0C9
:100990005FFFA3232B70633B1F002740234200D13E
:1009A000A4E0C0226A700832AA70063AEA70C02336
:1009B0005B0025001D401C4200D19DE001ABC4221C
:1009C0001A7108325A71063A9A7101AAA323D37197
:1009D000137253720A215F4800F03AFF03231A0092
:1009E00022409046234200D18CE001AB20221A70B5
:1009F00001AA0121584800F02BFFA30600D485E08E
:100A00000120FFF753FF002D10D0E30500D481E053
:100A100001ABB2221A70273A5A702B329A701B3AE5
:100A2000DA7001AA04214D4800F012FFE30700D458
:100A30007AE001AAF82313708B200121000100F055
:100A400007FFFA210720FFF7CFFD0720FFF798FEE9
:100A50000120FFF7B8FE6420FFF7C9FEFA2040002E
:100A6000FFF7D7FEC8213E48FFF7E5FE2820FFF735
:100A7000F9FE0A20FFF708FFA3075ED501ABD922D4
:100A80001A7001AA0121374800F0E2FE630758D529
:100A90000120FFF72FFFE30657D50120FFF748FF9E
:100AA000314E08232343738100F086F90023B3738A
:100AB000002F02D02C4B06229A73002D03D02A4A15
:100AC000937B063393731423234203D0264A937BEC
:100AD000103393734346002B03D0234A937B043394
:100AE0009373002004B080BCB846F0BD01ABA322D4
:100AF0005A709A70DA705AE701ABA3221A715A71D0
:100B00009A7162E701ABD8221A7071E70020FFF7F3
:100B1000CDFE78E701ABB0221A70303A5A70343209
:100B20009A70243ADA707CE701AAD82313708B20DC
:100B30000121000100F08CFE9EE701ABD8221A7063
:100B40009FE70020FFF7D6FEA5E70020FFF7F0FEA5
:100B5000A6E7C046A70A0000B60A0000A20A0000E5
:100B600009E3CA023D070000640D0020F0B5DE462F
:100B700057464E464546E0B58FB007008846924638
:100B80009946189D00232B80604B987B199A06A9E3
:100B900000F052FB061E00D0B4E05C4B59891423D0
:100BA0000B425DD006AB1A7812065C78240422430F
:100BB0009C7824022243DC7814435246146018794E
:100BC00000065A79120410439A7912021043DA7916
:100BD00010435246019050601A7A1206587A000467
:100BE0000243987A00020243D87A10438446524660
:100BF00090601A7B120693465A7B120458460243B1
:100C0000987B00020243DB7B13435246D3602214DD
:100C1000029201980014039064462414A44604949C
:100C20001C14059452434043121863465B439C4690
:100C3000624464431219F1231B069C4662448023DC
:100C40009B049A4206D82A8880235B0013432B809A
:100C5000102206E000F0B0F800232B80013E44E0B3
:100C600000224B061DD506AB9C5C2402501C185C70
:100C7000204344462080901C1C5C2402D01C185C3D
:100C8000204344466080101D185C0002541D1B5D0B
:100C90000343404683800632D2B22B8808200343A8
:100CA0002B80C0235B0019421AD006AB9C5C240247
:100CB000501C185C20433880901C1C5C2402D01C03
:100CC000185C20437880101D185C0002541D1B5DC9
:100CD0000343BB800632D2B22B88702003432B80A3
:100CE0008B070AD1484600F009FF30000FB0F0BC76
:100CF000BB46B246A946A046F0BD06AB9818FFF722
:100D00007FFBEFE701267642EFE7C046640D002047
:100D100000B583B0274A2423D35C002B1AD00028C7
:100D200014D06B460222DA71224B5A681B68597C38
:100D300010786B4607330122FFF710FB00282DD1F6
:100D40006B46DA791B4B5A7403B000BD6B46002228
:100D5000DA71E9E7174B9B7A002B22D0002803D0E9
:100D6000144B5B7C002B1FD1002813D06B46012253
:100D7000DA71104B5A681B68597C10786B46073340
:100D80000122FFF7EBFA002810D16B46DA79094B04
:100D90005A74D9E76B460022DA71EAE70120404233
:100DA000D2E701204042CFE70020CDE701204042BA
:100DB000CAE7C0464402002000B583B07B4B9B7A53
:100DC000002B00D1D0E06B46073300221A70774A1F
:100DD00050681268517C00780122FFF7BFFA0028A2
:100DE00000D0C4E0714B5A681B68597910786B4683
:100DF00007330122FFF7B2FA002800D0BAE06B4BAC
:100E00005A681B68197910786B4607330122FFF77F
:100E1000A5FA002800D0B0E0644A2423D35C002B5C
:100E200051D06B4607330C221A70604A5068126822
:100E3000117900780122FFF791FA002800D09FE095
:100E4000323002F001F86B46C022DA71574B9B7AC0
:100E5000DB0702D56B462032DA71544B5A681B68A7
:100E6000197910786B4607330122FFF777FA0028CB
:100E700000D088E04D4B5B7C002B20D06B460222DB
:100E8000DA714A4B5A681B68597C10786B460733F5
:100E90000122FFF763FA002800D077E06B460733A2
:100EA00000221A70414A5068126851790078012274
:100EB000FFF754FA002800D06BE003B000BD6B468A
:100EC0000022DA71DDE76B46073304221A70374AD5
:100ED00050681268117900780122FFF73FFA002864
:100EE0005AD1324B9B7C002B03D1304B9B7ADB07D2
:100EF00032D46B464022DA712C4B5A681B68197940
:100F000010786B4607330122FFF728FA002846D1F4
:100F1000323001F099FF254B5B7C002B20D06B46D3
:100F20000122DA71214B5A681B68597C10786B4694
:100F300007330122FFF712FA002833D11B4B5A68FE
:100F400019681033497910780122FFF707FA002851
:100F5000B3D001204042B0E76B466022DA71CBE7A4
:100F60006B460022DA71DDE701204042A5E701204F
:100F70004042A2E7012040429FE7012040429CE717
:100F80000120404299E70120404296E7012040427B
:100F900093E70120404290E7012040428DE7012085
:100FA00040428AE70120404287E7C04644020020D1
:100FB00000B583B0254B9B7A002B3FD0FA239B00D2
:100FC000984237D00CD8FA2815D0F53BFF3B984211
:100FD00003D16B460822DA7110E00120404227E07D
:100FE000FA23DB00984203D16B461822DA7105E040
:100FF000012040421CE06B460022DA71134B1A7A42
:101000006B4607331B78DB089A421AD00F4B5A689D
:101010001B68997910786B4607330122FFF79EF918
:10102000002810D16B4607331B78DB08074A137280
:1010300003B000BD6B461022DA71DFE701204042A9
:10104000F6E70020F4E701204042F1E744020020E7
:10105000134B5B7A022B1DD009D8002B0FD0012B2C
:1010600002D1042303700CE00120404211E0032B65
:1010700002D11023037004E00120404209E0022362
:101080000370074BDB7C002B07D003785B000370F9
:101090000020704708230370F3E70020F9E7C046FB
:1010A0004402002000B583B0224B9B7A002B39D03C
:1010B000082833D00AD8022811D0042803D16B465F
:1010C0000822DA710EE00120404225E0102803D109
:1010D0006B461822DA7105E0012040421CE06B46A5
:1010E0000022DA71134B5A7A6B4607331B78DB0800
:1010F0009A421AD00F4B5A681B68D97910786B4600
:1011000007330122FFF72AF9002810D16B46073375
:101110001B78DB08074A537203B000BD6B461022F0
:10112000DA71DFE701204042F6E70020F4E7012012
:101130004042F1E74402002000B583B0224B9B7A85
:10114000002B39D0BB281BD96B460122DA711E4B0C
:10115000DA7A6B4607331B789A4230D01A4B5A68BA
:101160001B68997810786B4607330122FFF7F6F871
:10117000002826D16B46DA79134BDA7203B000BD32
:10118000612803D96B460222DA71E0E7292803D9E6
:101190006B460322DA71DAE7132803D96B4604227F
:1011A000DA71D4E7092803D96B460522DA71CEE754
:1011B0006B460622DA71CAE701204042DEE70020D2
:1011C000DCE701204042D9E74402002070B501234A
:1011D00098430400174A2333D35C002B25D1937A1C
:1011E000002B24D0167C0340137483420ED00125BB
:1011F0006D42002C03D10F4B1B7D002B08D001202A
:10120000FFF786FD002C07D1280070BD0025F0E710
:101210000020FFF77DFDF5E7FFF7CEFD0028F3D0B6
:10122000044B1E7401256D42EEE70025ECE7012515
:101230006D42E9E744020020F0B583B004000F00DE
:1012400016002D4A2423D35C002B45D0937A002B23
:1012500045D0130052681B68197B107801AB02223D
:10126000FFF7B2F800283DD101AB1D782D025B7865
:101270001D43A54227D3204B5A6853885B08AB42D5
:101280000DD21D4B1B68D97C107801AB0122FFF7F2
:101290009BF8002829D101AB1B78DB0617D4164B2D
:1012A00058681B68E2B2597B00783B00FFF78CF866
:1012B00000281DD12100280003F00EFE01383070F7
:1012C000002003B0F0BD002333700138F9E7FFF7C9
:1012D00073FD02204042F4E701204042F1E7012083
:1012E0004042EEE701204042EBE701204042E8E7C0
:1012F00001204042E5E7C0464402002010B582B01C
:1013000004005A4B9B7C834200D19DE0002847D0CB
:10131000564B5A681B68197910786B4607330122BF
:10132000FFF752F8002800D090E06B46DB792022CE
:1013300093436A46D3714D4B5A681B6819791078EC
:101340006B4607330122FFF709F8002800D080E040
:10135000033001F079FD6B460222DA71434A222301
:10136000D35C002B02D06B468222DA713F4A2323E2
:10137000D35C002B05D06B46DA1DDB7930210B43A3
:1013800013703A4B5A681B68D97D10786B46073347
:101390000122FEF7E3FF002846D00120404246E04C
:1013A000324B5A681B68197910786B460733012253
:1013B000FFF70AF800284FD12C4B9B7ADB0738D572
:1013C0006B46DA1DDB7920210B431370274B5A68DB
:1013D0001B68197910786B4607330122FEF7BEFFB0
:1013E00000283CD1033001F02FFD204A2223D35C9A
:1013F000002B25D06B468022DA711C4A2323D35C54
:10140000002B05D06B46DA1DDB7930210B431370BE
:10141000164B5A681B68D97D10786B46073301223A
:10142000FEF79CFF00281DD1104B9C74002002B0D9
:1014300010BD6B46DA1DDB7920218B431370C5E7A5
:101440006B460022DA71D8E70020F0E70120404225
:10145000EDE701204042EAE701204042E7E70120B2
:101460004042E4E701204042E1E7C0464402002058
:1014700010B582B004001D4A2323D35C83422FD0D1
:10148000002829D06B463022DA71184B9B7C002B48
:1014900005D06B46DA1DDB7902210B431370134A2A
:1014A0002223D35C002B06D06B46DA1DD97980232A
:1014B0005B420B4313700D4B5A681B68D97D107843
:1014C0006B4607330122FEF749FF00280AD1074A7D
:1014D0002323D45402B010BD6B460022DA71D4E746
:1014E0000020F7E701204042F4E7C0464402002014
:1014F00010B582B0040028285CD8002817D100203D
:10150000FFF7B6FF00236A461371073353712E4B62
:101510005A681B68597D107801AB0222FEF71EFF46
:1015200000284AD1284B00221A7502B010BD0120B4
:10153000FFF79EFF01AB20221A70012C26D0052C4C
:101540002AD9142C2FD801AB02225A700A20FFF797
:10155000F3FD6B465B799B01072213436A46537187
:10156000194B5A681B68597D107801AB0222FEF7AF
:10157000F5FE002824D1144B08229A7200221A7317
:1015800001321A75FFF722FE0020CEE700225A70C2
:101590000520FFF7D1FDDCE701AB01225A700520E1
:1015A000FFF7CAFDD5E701AB03225A701420FFF7FD
:1015B000C3FDCEE701204042B7E701204042B4E737
:1015C00001204042B1E7C0464402002010B582B07D
:1015D0000400264B9B7A002B3FD0244A2423D35C63
:1015E000002B3DD1137D002B06D0431E9BB2272B31
:1015F0000BD90020FFF77CFF032C0AD9FA239B00AC
:101600009C4207D9FA24A40004E0FFF771FF0020F0
:1016100021E004242100FA20800003F035FC013889
:101620006B4607331870114A506812685178007879
:101630000122FEF793FE002815D16B46D9790131BE
:10164000FA20800003F020FC80B2084BD8814008CB
:10165000FFF772FD002002B010BD01204042FAE702
:1016600001204042F7E701204042F4E74402002015
:1016700010B582B00400702303424ED06B460122A5
:10168000DA71334B5A681B68597D10786B46073303
:101690000122FEF763FE002849D16B46DA1DDB7993
:1016A00040218B432A490B7300231370630602D435
:1016B000130004221A70A30605D46B46DA1DDB79E9
:1016C00002210B431370E30605D46B46DA1DDB7968
:1016D00001210B431370230705D46B46DA1DDB7918
:1016E00038210B4313701A4B5A681B68997D107888
:1016F0006B4607330122FEF731FE00281DD1002C76
:1017000001D0082C1FD1124B9C7200221A75322076
:1017100001F09AFB002002B010BD002803D06B46F8
:101720000022DA71ADE76B464022DA71A9E7084B77
:1017300000229A7201204042EDE7054B00229A7286
:1017400001204042E7E70020FFF792FEDBE7C046BA
:101750004402002030B583B080236A4613703B4BAF
:101760005A681B68597D10786B460122FEF7F6FD1A
:10177000002853D1643001F067FB00236A461370E0
:10178000324B5A681B68597D10786B460122FEF770
:10179000E5FD002845D12D4C0025E574FF23A372FB
:1017A00023726372E37201225242E2812374A374B2
:1017B000FE3B23732332A3542233E554657525750C
:1017C00020001630163A002104F0C0FE2423E55410
:1017D0000133E554E584FA20C000FFF7E9FB002857
:1017E00022D10230FFF75EFC002820D12A30FFF71B
:1017F000A3FC00281ED13230FFF7E8FE00281CD1E0
:10180000FFF7E4FC00281BD1FFF778FD041E1AD176
:101810000020FFF72DFF200003B030BD01246442FB
:10182000F9E701246442F6E701246442F3E7012466
:101830006442F0E701246442EDE701246442EAE7F0
:1018400001246442E7E701246442E4E74402002003
:1018500030B583B00C00151E25D01A4B9B7A002B97
:1018600024D0020A01AB1A70C0B258700818154B88
:101870005B685A8990421CDC124A1268D17E187843
:1018800001AB0222FEF76AFD002815D10D4B586806
:101890001B68E2B2197E00782B00FEF75FFD00287E
:1018A0000DD103B030BD01204042FAE70120404293
:1018B000F7E701204042F4E701204042F1E7012030
:1018C0004042EEE74402002030B583B00C00151E04
:1018D00025D01A4B9B7A002B24D0020A01AB1A7038
:1018E000C0B258700818154B5B685A8990421CDCCE
:1018F000124A1268D17E187801AB0222FEF72EFD43
:10190000002815D10D4B58681B68E2B2197E00788B
:101910002B00FEF759FD00280DD103B030BD01208A
:101920004042FAE701204042F7E701204042F4E755
:1019300001204042F1E701204042EEE7440200204E
:10194000F0B5CE46474680B589B00700884600927C
:1019500001932C4A2523D35C002B40D1002941D090
:1019600000251AE0A6B2A946C1444A463100280023
:10197000FFF76EFF002838D104AA31002800FFF7D6
:10198000A3FF002834D12204120C04A9484605F014
:10199000FDFC00282FD1AD19ADB2BD4204D27C1B95
:1019A000102CDFDD1024DDE7009A130A02A90B7169
:1019B0004A71144B5A681B68597F107803AB022296
:1019C000FEF7CCFC002819D10E4B25220121995499
:1019D000019ADA8409B0C0BCB946B046F0BD012016
:1019E0004042F7E701204042F4E701204042F1E79E
:1019F00001204042EEE702204042EBE70120404256
:101A0000E8E7C0464402002010B582B0214A2423F2
:101A1000D35C834239D0002822D02523D35C002B0D
:101A200035D00020FFF774F90020FFF767FC194C50
:101A3000E08CFFF7CBFD6B46073300221A7062681B
:101A4000107801222321FEF789FC24230122E2548D
:101A50000120FFF75DF9FFF7AFF9002002B010BDDC
:101A60000020FFF755F90B4C227C6B4607331A70A8
:101A70006268107801222321FEF770FC24230022E3
:101A8000E254FFF799F90020E8E70020E6E701209B
:101A90004042E3E7440200200023C356002B01DD4F
:101AA00000207047002B10DB0123C356002B01DD03
:101AB0000120F6E7002B0ADB0223C356002B08DCCB
:101AC00001DB0720EDE70620EBE70420E9E705202E
:101AD000E7E70220E5E770B50500FFF7DDFF060048
:101AE000E81CFFF7D9FFC400344324B2A81DFFF758
:101AF000D3FF8001204380B270BD000010B5040008
:101B000001F056FA002907DB0CD0FA2292000023DC
:101B100003F020FA206010BD054B064A3F2106481D
:101B200002F02CF8FA21890003F0D6F9F2E7C0465A
:101B300090830010B0840010AC83001010B53A49B7
:101B40003A4805F009F90321042000F075F9032152
:101B5000052000F071F900220121042000F084F931
:101B600000220121052000F07FF9642001F06CF9CA
:101B70000020FFF7EFFD002801D0002010BD7830D5
:101B8000FFF776FD002826D17820FFF71FFB0028FD
:101B900026D16420FFF71AFD002826D1FEF74EFC5F
:101BA000002827D12248FFF796FFFEF755FC0028B2
:101BB00026D17420FF30FEF7D9FE002825D16420FD
:101BC000FEF7DAFC002825D10120FFF71DFF0028D1
:101BD00025D10020D2E7174804F0E6FD0120CDE72B
:101BE000154804F0E1FD0220C8E7144804F0DCFDCC
:101BF0000320C3E70100124804F006FE0420BDE7FD
:101C0000104804F0D1FD0520B8E70F4804F0CCFDE2
:101C10000620B3E70D4804F0C7FD0720AEE70C48E7
:101C200004F0C2FD0820A9E7801A0600280300205E
:101C30003802002000840010148400102884001052
:101C40003C840010588400106C84001080840010C4
:101C500094840010F0B5DE4657464E464546E0B542
:101C60008FB0060002919346192302AA944663445A
:101C700001931A23634400930DAB04AA09A90BA88E
:101C8000FEF774FF002800D0CDE01A2302AA944684
:101C900063441B88DA0500D4C7E0049804F054FBC1
:101CA000C221890504F041FB8146059B039318007E
:101CB00004F04AFBC221890504F037FB051C069B92
:101CC0000393180004F040FBC221890504F02DFBAA
:101CD000041C079804F038FBC221890504F025FB99
:101CE0008046C0210906281C04F01FFB071C414642
:101CF00004F01BFB03904946484604F0FBFA824679
:101D0000211C04F012FB011C039804F0F3FA04F008
:101D100045FB03F099FC464A464B03F054FB03F0A5
:101D20000BFC3060211C201C04F0E4FA061C414628
:101D300004F0FBFA0390291C504604F0F6FA011C4B
:101D4000039804F0D7FA8246291C381C04F0EDFAF7
:101D5000071C211C301C04F0E8FA011C381C04F09C
:101D6000C4FAFE21890504F0C5FA04F017FB060049
:101D70000F00504604F012FB32003B0003F0F4FB6E
:101D80002B4A2C4B03F01FFB03F0D6FB029B186081
:101D9000211C281C04F0C9FA061C4146484604F0E0
:101DA000C4FA011C301C04F0A5FA011C04F0A2FACC
:101DB000061C4946484604F0B8FA071C291C281C92
:101DC00004F0B3FA011C381C04F094FA051C211C21
:101DD000201C04F0AAFA011C281C04F086FA041C3A
:101DE0004146404604F0A1FA011C201C04F07DFA93
:101DF00004F0D4FA04000D00301C04F0CFFA2200E5
:101E00002B0003F0B1FB0A4A0A4B03F0DCFA03F0A3
:101E100093FB5B46186000200FB0F0BCBB46B24697
:101E2000A946A046F0BD0120F6E70220F4E7C0462F
:101E30006666666666A64C4010B58300084A9446FE
:101E400063441C6840226240C02414408022520136
:101E500013431C60C000034B9C466044416010BDAE
:101E600004C001400040014080000B4B9C46604490
:101E700000290DD00823002A0CD004221343026845
:101E800053400C22134080225201104303607047DC
:101E90000023F0E70022F1E704C00140034B1B6878
:101EA00002201840431E9841C0B2704700C006404F
:101EB000EFF3108072B6034B1B68002BFBD0BFF30F
:101EC0005F8F70472C0100D0BFF35F8F024B002261
:101ED0001A6080F3108870472C0100D0F8B5060016
:101EE0000C001500FFF7E4FFE308F718F15C072288
:101EF0002240012393400B4205D1DBB20B433B70E0
:101F0000FFF7E2FFF8BD2100280001F0D1FE00003C
:101F1000002307E0054A9A189200BFF35F8F002163
:101F2000116001331F2BF5D97047C04640000034C3
:101F3000054A1078431CDBB21370172B02D913002B
:101F400010221A707047C04670020020074B9B6831
:101F5000103080001950BFF35F8FBFF35F8F044BC9
:101F60000021196082F310887047C04600ED00E040
:101F7000240100D010B5091A081F0A4B9C46614481
:101F8000094A914208D8C30706D440104005400DC5
:101F9000064B184380B210BD054B064AA3210648E4
:101FA00001F0ECFDFC070000FE0F000000E0FFFF69
:101FB0001C8500107C8700104C85001010B5091A94
:101FC00004394C08090B08D14905490D064A11434B
:101FD0000180064B2343438010BD054B054AAB21CE
:101FE000054801F0CBFDC04600F0FFFF00F8FFFF01
:101FF00098850010508700104C8500100123834005
:10200000034A10681840431E9841C0B27047C0464A
:1020100000E100E0002904D0034B1860034B186076
:102020007047034B1860FBE780E200E000E100E04E
:1020300080E100E010B5012383401800FFF7EAFFBC
:1020400010BD0000024B9B6810308000C0587047E4
:1020500000ED00E070B504000D00EFF3108672B6DD
:102060000C4B1B68002BFBD0BFF35F8F2000FFF7EA
:10207000E9FF094B984201D0A84205D1320029005E
:102080002000FFF763FF70BD044B054A8621054819
:1020900001F074FD240100D0CD010010A8850010CE
:1020A000988700104C850010F0B5CE46474680B5A5
:1020B00083B006000D00EFF3108872B6564B1B6814
:1020C000002BFBD0BFF35F8F544B9A683400103461
:1020D000A300D758524B9F4207D0AF4200D198E09F
:1020E0000197504BFB1A2F2B09D94246390030007B
:1020F000FFF72CFF03B0C0BCB946B046F0BD3000BE
:10210000FFF77CFF814600213000FFF793FFBFF30C
:102110005F8FEFF30581002901D08C4211D101239B
:10212000019C9C430022A368AB4212D00622A25617
:10213000002A0DDB53009B189B002200394CE41849
:10214000F1E73621384B394AFF31394801F016FDA5
:102150002200AB4256D106256557002D38DB6B00B7
:102160005B199A002F4B9B189A68A260DA79E2718A
:1021700006229A56A2719B795BB2002B0FDA2D488A
:10218000A0806B005B199B00264AD3182A4A11785D
:102190009971157049463000FFF74CFFA5E7201DE7
:1021A0006B005B199B001F4A9B181A1D9B88D90A5C
:1021B0001C2907D15B055B15023359005118FFF745
:1021C000D9FEDDE71D4B1E4AB121194801F0D6FCAE
:1021D000002912D1002A0ED0FF239371194B93804E
:1021E000154A1378A371184B0E49641A644163436E
:1021F0001B0D1370CEE70A4FF2E7201D1349FFF7BE
:10220000DDFEC7E76A21124B084AFF31084801F09A
:10221000B5FC034F69E7C046240100D000ED00E0A3
:10222000CD01001074020020BC86001068870010E9
:102230004C85001001BD0000B50F0020A4860010E1
:102240008887001001BDFFFFAAAA0000AE0200208F
:10225000F086001070B5012101432E4BCB1A2F2BB5
:1022600028D8EFF30583002B2BD0EFF3108C72B638
:10227000294A1268002AFBD0BFF35F8F274A040067
:10228000244D641B64416243120D54B2244A926887
:102290009B00D2588A421BD00022032A32D8530016
:1022A0009B189B001B49CB189B795BB2A3421FD0A4
:1022B0000132F2E7C7211B4B1B4A49001B4801F0C2
:1022C0005DFC92211A4B184AFF31184801F056FC68
:1022D000134A92681749D150174B1A7882711C70B3
:1022E000BFF35F8F0C4B00221A608CF3108870BD17
:1022F0000D005300991889006918FF268E710F4A46
:102300008A80E9E7D1210E4B074A4900074801F0CE
:1023100035FCC04674020020240100D0AAAA0000A7
:1023200000ED00E0F8860010348700104C850010A6
:1023300020870010CD010010B50F002001BDFFFF68
:102340002C8700100022044B02E0044902C3013232
:10235000072AFAD97047C04600E400E080808080F8
:10236000024B9C4661448900016070474000003484
:1023700010B50400FFF7DCFD01002000FFF7F0FFBF
:10238000FF232371BFF35F8F10BD10B50400FFF76B
:10239000CFFD01002000FFF7E3FFFF23237100239F
:1023A0006371BFF35F8F10BD70B505000C000800AE
:1023B00000F0FEFE0949200000F03EFEFFF7B8FDE8
:1023C000074B9C466044800068602C75D0231B0638
:1023D0001B786B75A400034BE55070BDED26001013
:1023E00040000034840D00200A4B1A68EFF310817E
:1023F00072B61368002BFCD0BFF35F8F054B1B68D0
:10240000BFF35F8F00221A6081F3108840BF002065
:1024100000217047980F002010B5002922D00368D2
:102420001B7B99421ED8174B9C4661440901836867
:102430009C4661440C684968002A19D003681B7BDC
:102440009A4215D883680F488446624412019A184C
:1024500010685368020001208B4201D80ED0002082
:10246000C0B210BD084B094A3C21094801F086FB67
:10247000054B064A3C21064801F080FBA242EFD8FA
:10248000EDE7C046FFFFFF0FD0880010408B001023
:102490008888001010B500291ED0037B99421BD8F4
:1024A0004B005B18033B0468A4466344002919D021
:1024B000002A1DD0914221D0002A25D0047BA242BF
:1024C00022D80468500080180338201881701978C9
:1024D00000291FD11A7010BD104B114A68211148F4
:1024E00001F04CFB104B114A6F310E4801F046FBD6
:1024F0000F4B0E4A70210B4801F040FB0D4B0B4A6D
:102500007121084801F03AFB044B054A682105484F
:1025100001F034FB41701A70DDE7C046F48800100A
:10252000AC8B00101089001068890010888B001097
:10253000748900108089001070B506000D00140029
:10254000002914D0002A14D08068736898470028A6
:1025500006D0220029003000FFF79CFF280007E08A
:102560002A0021003000FFF795FF200000E0100056
:1025700070BD0800FCE70000F0B583B005000092D4
:1025800001930AAB1C780BAB1F78002C26D0036894
:102590005A7B944207D10123002B19D1002C3BD147
:1025A000200003B0F0BD002C0CD01A7B944209D857
:1025B0001A6863001B19033BD3189B78002BEBD0E0
:1025C0000123E9E73E4B3F4A68213F4801F0D6FA34
:1025D0003E4B3F4A67213F4801F0D0FA03689C7B9D
:1025E000002CDBD012D01A7B94420FD86200121953
:1025F000033A19688C46624451789973002900D1D6
:10260000D9730023937053701370C7E72C4B2D4A76
:1026100068212D4801F0B2FA002C3AD02B681B7BC0
:102620009C4236D82C4BE3181B01AA68944663449D
:10263000009A1A60019A5A60089A9A60099ADA60B8
:102640002E68002C2BD030D0337B9C422DD86300D9
:102650001B19033B32689446634400229A705A70F7
:102660001A70717B22003000FFF766FF707384429E
:1026700000D095E7287D009A019B00F025FD061EFD
:1026800001D0002F17D00C9B002B00D188E71E70C3
:1026900086E7124B124A3C210E4801F06FFA114BAB
:1026A000114AA521084801F069FA054B054A68213D
:1026B000054801F063FA2868210000F03DFFE2E7D9
:1026C000F4880010AC8B001010890010988900105D
:1026D000B88B001088880010FFFFFF0FD088001013
:1026E000408B0010848800109C8B0010F0B5DE46F3
:1026F00057464E464546E0B58BB0099000230893F7
:102700008200B54BD658370052E0B44BB44A3F2153
:10271000B44801F033FAB44BB44A3C21B44801F058
:102720002DFA002901D1002869D10021404600F08E
:10273000F9FEA04219D12A686B6806920793AB682C
:102740009846EB689A464346002B14D0002C18D0CC
:102750003B681B7B9C4214D8631EFA68D35C0893C9
:102760001B0218433861002015E0A24BA24A8E21BB
:102770009F4801F003FAA14B9F4A92219C4801F027
:10278000FDF9994B9E4A4121994801F0F7F9002340
:102790009A46984600207B68BFF35F8F00221A603C
:1027A00086F310884346002B32D1002800D10CE17B
:1027B00000F0FEFB02000B1EA7DB002000210690AC
:1027C00007917868EFF3108672B601680029FCD093
:1027D000BFF35F8F396888464C7B002CD7D09AD0E6
:1027E000097B8C4297D8874965182D01B9688C46BA
:1027F000654428686968801A9941002991DD2A6832
:102800006B68099800F060FC00239A469846C2E77E
:10281000089B1B022343994651461800C0470500F8
:102820000E007A68EFF3108B72B6136859424B4171
:10283000D9B2002BF9D1BFF35F8F002E1EDB002E23
:1028400046DD3B69002B47D04B456DD100F0B0FB16
:1028500002000B1E6EDB52197341002B70DB002B44
:1028600072DB0021049101310391029451460191E0
:10287000414600913800FFF77FFE4CE03B69002B9A
:10288000DDD04B4514D1069A079B521BB341002B58
:1028900014DB002B16DB002104910131039102941B
:1028A00051460191414600913800FFF765FE32E044
:1028B000554B514AA1214E4801F060F90122524284
:1028C000524BE6E7454B464A3F21464801F056F950
:1028D000002E01D1002DB4D13B68002C50D05A7B82
:1028E000944237D1012100294AD1DA7B002A4DD107
:1028F0009A7B002A03D1DA7B002A5AD19C73DC73BD
:10290000002C5CD03B681B7B9C4258D8FA68013C89
:10291000135D0133135500233B617A68BFF35F8F6A
:1029200013608BF3108843E7374B334AA4213048B8
:1029300001F024F9294B2A4A3F212A4801F01EF9C7
:1029400001225242314B8AE7244B254A3F21254838
:1029500001F014F9002C0DD01A7B94420AD86200C1
:102960001219033A1868844662449278002ABAD051
:102970000121B8E7264B274A6821274801F0FEF8D5
:10298000264B274AF621244801F0F8F8002A0AD0FD
:10299000197B8A4207D851008A18033A19688C4675
:1029A00062445470A4E71A4B1A4A68211A4801F08D
:1029B000E5F81C4B1A4AFB21174801F0DFF80A4BD7
:1029C0000F4A41210A4801F0D9F80BB0F0BCBB46D0
:1029D000B246A946A046F0BD840D002090830010A9
:1029E0000C8B0010AC830010D0880010408B0010BE
:1029F00088880010C0890010248B0010D88900102E
:102A0000648B0010FFFFFF0FE4890010FFFFFF7FC2
:102A1000F4880010AC8B001010890010208A001080
:102A2000788B0010448A001010B50C4B5B68002BAB
:102A300004D00A210A48FFF793FC10BD074C23007D
:102A4000084A1021206800F07DFC032000F0A4FA61
:102A500003212000FFF7A8FCEBE7C046BC020020E2
:102A6000980F00201924001010B5064B5B68002B4E
:102A700001D0044810BD044B044A5E21044801F013
:102A80007DF8C046BC020020588A00104C8B001014
:102A900088880010F0B5DE4657464E464546E0B5FC
:102AA0008BB0804616001F00149B9A46159B9946D2
:102AB00016AB1B789B461F2302AA94466344002250
:102AC0001A702BE0002809D042461268127B90420F
:102AD00004D8421E4146C9688A5C41E0404B414AE5
:102AE0004121414801F04AF807984CE0361BAF41BC
:102AF000002F07DB002F11DA3C4B3D4A3F213D48B8
:102B000001F03CF8012676423B4FF3E7374B384A59
:102B10003F21384801F032F8002F4FDB43465A6816
:102B2000EFF3108472B6136859424B41D9B2079142
:102B3000002BF8D1BFF35F8F1F3302AA9446634482
:102B400004930023039302934B460193534600934F
:102B500032003B004046FFF70FFD031EB2D10200DA
:102B600041464968BFF35F8F00250D6084F31088EC
:102B7000002B29D01F2302A98C4663441B78002B0D
:102B8000B2D112021043002B20D05B46002B1DD087
:102B90004946D04704000D0003000B431DD0002917
:102BA000A4DB00F005FA06000F1EAFDB36196F41FB
:102BB000002FB1DA012676420F4FADE70B4B0C4ADE
:102BC0003F210C4800F0DAFF012040420BB0F0BC7E
:102BD000BB46B246A946A046F0BD0798F6E7C046F8
:102BE000D0880010648B001088880010908300103B
:102BF0000C8B0010AC830010FFFFFF7FF8B50400C2
:102C0000002900D162E04268EFF3108572B61368C4
:102C100058424341D8B2002BF9D1BFF35F8FCBB2FA
:102C20002268567BB3421BD10120002848D020697E
:102C300088422BD0090AC9B2002B2ED02068007B15
:102C400083422AD8581EE668305C88422BD0002088
:102C50006368BFF35F8F00221A6085F31088F8BDA8
:102C6000002B0DD0167BB3420AD85E00F618033E47
:102C70001768BC466644B678002ED6D00120D4E74B
:102C8000134B144A6821144800F078FF2C21134B91
:102C9000134AFF31134800F071FF134B134A4121CF
:102CA000104800F06BFF1900100000F045FC0028F0
:102CB000CED199210E4B0A4A49000A4800F05EFF26
:102CC00023698B42C4D100232361C1E70020C6E7FA
:102CD000F4880010AC8B0010108900107C8A001062
:102CE000F48A001088880010D0880010648B0010CF
:102CF000A08A0010F0B587B006000F00EFF305833F
:102D0000002B1FD106246442E517A4197D418D4292
:102D100002D803D1844201D900240025002D14DB00
:102D20000494059500F044F902000B1E13DBA41A6D
:102D30009D41002D17DC14D03000390000F044F91B
:102D400007B0F0BD234800F0B3FF234B234A3F21D7
:102D5000234800F013FF204B204A3F21204800F079
:102D60000DFF002CE8D0FFF77FFE002302930193B4
:102D70001C4B0093049A059BFFF78CFE002818DA81
:102D8000DAE7002300E00023002BD5D1164B1A68A8
:102D9000EFF3108172B61368002BFCD0BFF35F8F86
:102DA000114B1B68BFF35F8F00221A6081F31088FC
:102DB00020BF0499059A0D4B5B6A9A42E3D80B48F1
:102DC000806A884203D29A42DBD00123DCE70123E8
:102DD000DAE7C046A48A0010908300100C8B001024
:102DE000AC830010E9230010980F0020004005403C
:102DF00070B504000D0000F0DBF802000B1E0ADBCA
:102E0000200029008018594100290ADB00290CDB29
:102E1000FFF770FF70BD084B084A3F21084800F0DB
:102E2000ADFE012040420749F0E7034B034A3F2132
:102E3000034800F0A3FEC046908300100C8B0010E6
:102E4000AC830010FFFFFF7F10B5FA229200002331
:102E5000002103F02DFAFFF7CBFF10BD70B584B051
:102E600005000C00EFF30583002B1ED1FFF7FCFDDE
:102E7000002302930193224B00932A002300FFF7C3
:102E800009FE061E23DD20BFFFF7EEFD3100FFF730
:102E9000B5FE1C4B5B6A9C422DD81A4A926AAA4224
:102EA0002CD29C4225D0012026E0164B5B6A994229
:102EB00009D8144A926A824207D2994201D001206D
:102EC0001AE0002018E0002016E0012014E00D4B6D
:102ED0005B6A9C4209D80B4A926AAA4207D29C427A
:102EE00001D0012008E0002006E0002004E00120DD
:102EF00002E0002000E0002004B070BD0120FBE7EC
:102F0000E92300100040054070B5EFF3058010384C
:102F1000EFF3108C72B61A4B1B68002BFBD0BFF37B
:102F20005F8F01221300834016494B6316490B60E3
:102F3000164909780C00C440224214D0114A546A40
:102F40008200134D5259944206D38200114C1259FB
:102F500099430E4B197007E00A4A031D9B009958CC
:102F60009950002200E00022BFF35F8F044B002144
:102F700019608CF31088002A00D0904770BDC046BD
:102F8000280100D0004005403C700540B60F0020ED
:102F90009C0F0020E40C002010B50100024A0348F9
:102FA000FEF79CFF10BDC046D08B0010B40F002070
:102FB000044B5B6A034A906A1900536A9942F9D13B
:102FC0007047C04600400540084B5B6A01E0074B74
:102FD0005B6A8B42FBD301E0044B5B6A8B4203D1FB
:102FE000024B9B6A8342F7D37047C04600400540BE
:102FF00070B504000D00FFF7DBFF02000B0020009E
:103000002900801859418B4202D804D1824202D94A
:1030100001204042C117002902DBFFF7D5FF70BD38
:10302000024B034A3F21034800F0A8FD90830010A3
:10303000848C0010AC83001070B504000D00EFF319
:10304000108672B61B4B1B68002BFBD0BFF35F8F43
:10305000002D1CD02000FEF7F5FF174B83420BD04C
:1030600019002000FEF7F6FF01212000FEF7E2FF25
:103070000123A340114A1360A400114BE550BFF394
:103080005F8F0C4B00221A6086F3108870BDA2007F
:103090000B4B0021D1500122A2400A490B789343E7
:1030A0000B7005492000FEF7FFFF00212000FEF70E
:1030B000C1FFE4E7280100D0092F00103860054067
:1030C000E40C0020B60F0020F0B5DE4600B584B059
:1030D0000400150001921E000293FFF769FF03959B
:1030E0008E4202D84ED185424CD9EFF3108B72B686
:1030F000274B1B68002BFBD0BFF35F8F254A177847
:103100000125A540EBB23B431370234B5D63221DA9
:1031100092000199D150A2002049029850501B6A98
:103120002B4212D11C4B1B6C2B4208D00020BFF34A
:103130005F8F174B00221A608BF3108823E0184B27
:10314000184AC521184800F019FDFFF731FF8E42DB
:1031500014D802D1039B834210D80E4B1B78BB427C
:103160000ED00D4B1D625D631F2004400123A34060
:103170000E4A1360074B1F701E38D8E70020D6E7B1
:103180000120D4E7012004B080BCBB46F0BDC0469E
:10319000280100D0B60F0020004005409C0F002001
:1031A000F48B0010688C0010188C001080E200E096
:1031B000EFF3108C72B60B4B1B68002BFBD0BFF3E8
:1031C0005F8F01238340084A136208490A789A43B3
:1031D0000A70BFF35F8F034B00221A608CF31088D4
:1031E0007047C046280100D000400540B60F0020BF
:1031F00010B500291ED0037B99421BD84B005B18E9
:10320000033B0468A4466344002919D0002A1DD05A
:10321000914221D0002A25D0047BA24222D8046802
:1032200050008018033820188170197800291FD1A8
:103230001A7010BD104B114A6821114800F09EFC15
:10324000104B114A6F310E4800F098FC0F4B0E4A9C
:1032500070210B4800F092FC0D4B0B4A712108487D
:1032600000F08CFC044B054A6821054800F086FC00
:1032700041701A70DDE7C046F4880010988D001088
:103280001089001068890010848D00107489001066
:103290008089001070B506000D001400002914D0BC
:1032A000002A14D0806873689847002806D022004E
:1032B00029003000FFF79CFF280007E02A002100CA
:1032C0003000FFF795FF200000E0100070BD0800FF
:1032D000FCE7000010B50023437301338373037BC5
:1032E000C3730123027B9A4214D9002B0CD0027BBA
:1032F000934209D85A00D218033A01688C466244B6
:103300000133DBB25370EDE70B4B0C4A68210C48DC
:1033100000F034FC002A09D0924207D8016853001B
:103320009A18033A8A180023537010BD024B034ABF
:103330006821034800F022FCF4880010988D0010EA
:103340001089001010B5017342608360FFF7C2FF5F
:1033500010BD000070B50400081E00D170BD00292A
:1033600034D0237B994231D84B005B18033B226851
:10337000944663445A78002AF0D02DD0237B9A4299
:103380002AD853009B18033B21688C4663445D7820
:1033900000215970002825D0237B984222D8430071
:1033A0001B18033B21688C466344002159700100BF
:1033B0002000FFF76FFF060029002000FFF7CAFF7B
:1033C000020031002000FFF765FFC7E7084B094AFC
:1033D0006821094800F0D2FB054B064A68210648DF
:1033E00000F0CCFB024B034A6821034800F0C6FB07
:1033F000F4880010988D00101089001070B5050039
:103400000C00160000292FD034D0037B994231D80C
:103410004B005B18033B0268944663445A78002AC9
:103420002ED19A78002A31D11978FFF793FF030043
:10343000002E0AD0EA7B002A2ED1AA7B002A03D1D3
:10344000EA7B002A3BD1AC73EC73002B3DD1002CFE
:103450004FD02B7B9C424CD82B6861000C19033C4D
:103460001C190023637070BD254B264A382126485D
:1034700000F084FB254B264A6821264800F07EFB9D
:10348000254B204A3A21204800F078FB234B1D4A67
:103490003B211D4800F072FB002A0AD0297B8A429A
:1034A00007D851008A18033A29688C466244547040
:1034B000C3E7164B164A6821164800F05FFB184B0D
:1034C000104A4221104800F059FB002B0BD02A7BF8
:1034D000934208D843001B18033B2A689446634470
:1034E00000229A70B3E7094B094A6821094800F0A5
:1034F00045FB064B064A6821064800F03FFBC046E4
:103500009C8C0010708D0010A48C0010F4880010AA
:10351000988D001010890010EC8C0010148D001094
:10352000448A001070B504000A00457B2900FFF7AB
:1035300065FF6073280070BD70B50400002967D076
:10354000437B8B420ED0002911D0037B99420ED8C9
:103550004B005B18033B0268D0188378002B0CD11A
:10356000002056E00121FFF7DDFF012051E0294B4B
:10357000294A6821294800F001FB002B20D0227B3A
:1035800093421DD85A00D318033B2268D2182568ED
:10359000EB5C8B421AD0002B1BD0227B934218D8B5
:1035A0005A00D318033B2268D21853788B4216D0A6
:1035B000002BF0D11A4B1B4A6B211B4800F0DEFA9E
:1035C000144B154A6821154800F0D8FA4378137057
:1035D00007E0104B104A6821104800F0CFFA4378FA
:1035E000537000238370437001222000FFF706FF11
:1035F0000200617B814205D02000FFF74BFE607323
:10360000012006E0094B074A7121074800F0B6FA8D
:10361000002070BDF4880010988D001010890010F3
:103620002C870010588D0010A48C0010388D0010CD
:1036300070B5046BE30701D4200070BD0200303286
:10364000C0239B0113430A4A1A60456A826AAD018E
:10365000AD18AD02062000F0BDF9064901F03CFCB2
:103660000100280001F038FC0021FFF7C1FCE3E76E
:10367000010300004E0E000070B504000E0015009E
:10368000FFF7D6FF22002C32E16A4E4035408023FE
:103690005B0113431D60206370BD000070B5050021
:1036A0000C00062000F096F9C000210001F014FC87
:1036B000C60908D00E4B9E4216D87F231840013011
:1036C0003400460800E001246C62AE620022002152
:1036D0002800FFF7D1FF062000F07CF98000A1014F
:1036E000891901F0F9FB70BD0026024CECE7C046D9
:1036F000FEFF0000FFFF000010B505394901013A47
:10370000D2001143002B09D002220A43012B07D01B
:10371000002111436E22FFF7AFFF10BD0022F4E736
:103720000421F6E7002909D00A22064B9C46604492
:10373000434258414000044BC2527047802252001D
:10374000F3E7C0460080FCBFAC0F002070B5050059
:103750000C00062000F03EF9061E27D0164B9D42B5
:1037600026D08022D203154B1A60154B1A60154BD8
:103770009B6811009943FAD100212800FFF7D2FF7E
:1037800021002800FFF78AFF0600002301220821FC
:103790002800FFF7B1FF2A002C3280239B0113433E
:1037A00010221A60084B2B630323AB64300070BDFA
:1037B00080221204D7E7C0460080034000E00040AA
:1037C00000F0004000C0004001030000F8B5DE46F4
:1037D00057464E464546E0B505000F0092460A9A08
:1037E000934250D31A0E91461E020A9A00233000CB
:1037F000494601F0AFFB80466C006419A400304BD1
:103800009C4664446368834200D260602B1FDBB235
:103810009B46012B3DD9C0239B01234380221201EB
:103820001A60AB00274A9958002907D0506901F067
:1038300053FB431C5800C0180338FDD253465A01AD
:1038400023685A40E0231A4080235B0123431A6017
:103850005A46012A28D980239B0123438022120142
:103860001A6043466360424600233000494601F037
:1038700071FBAD00134B58510120F0BCBB46B24662
:10388000A946A046F8BD104B104A3321104800F05D
:1038900075F9012FBFD1C0239B01234303221A6076
:1038A000A368DB07FCD5C9E72168794003220A40F9
:1038B0001A60A2680123BB401342FAD0CBE7C0468E
:1038C00000800040FC0C0020A48D00100C8E001025
:1038D000B88D001030B583B00C2000F011F9FEF760
:1038E000DDFA00280DD0002304E099002D4A2E486F
:1038F00088500133092BF8D92A4B2C4A5A6203B05D
:1039000030BD2B4B00229A6700F002F9294B0122AF
:103910001A60274B5B6C012BFBD1274B03221A60EB
:10392000234B9B6B012BFBD1013300930433234AC0
:103930000121234800F054F805230093214A012176
:10394000214800F04DF8214B009300220221042071
:10395000FFF73CFF1E4D00952B00002201210520A2
:10396000FFF734FF104C00942300002200210720B1
:10397000FFF72CFF00942300002200210820FFF70E
:1039800025FF0A4B00932300002200210920FFF7A6
:103990001DFF00952B00002200210620FFF716FFD7
:1039A000ADE7C046FC0C0020006CDC021BB7000039
:1039B000008000403CB0004030B00040002F68590B
:1039C00000800240008C864700C00240001BB70008
:1039D000405973078000014BC0587047FC0C002011
:1039E000F0B5C64600B504000E0017001D003748AC
:1039F00001F072FA8046364BFA18364B9A4239D8A3
:103A00000100380001F068FA0200103A98235B00C8
:103A10009A4235D86B1E062B38D8069B013B062BE5
:103A200034D83F09474537D32D04069B1A03154365
:103A30002368002B36DB284B9C4244D08022520165
:103A4000264B1A60264B1A60264B9B68110099433F
:103A5000FAD12660A060231DC02292011A432123BF
:103A600013602368002BFCDAE5600823136080BC38
:103A7000B846F0BD1C4B1D4A11211D4800F07EF8D0
:103A80001C4B1A4A19211A4800F078F81A4B174AA9
:103A90001C21174800F072F8184B144A23211448CF
:103AA00000F06CF822683F231340B342C3D1A368EF
:103AB0001B051B0D8342BED1E368EE22D2021340E8
:103AC000AB42B8D1D3E780229201B9E7001BB7001F
:103AD00080E84BD380F8A93200C0024000E00040EB
:103AE00000F0004000C000401C8E00104C8F001001
:103AF0007C8E0010C88E0010E48E0010308F0010F5
:103B000080239B000343014AD36270470080054035
:103B1000064BAA2212011A602F22DA60044B054AD2
:103B20001A60024B5B68002BFBDA704700400240D2
:103B30000060024000B0FA0000BEFDE703000A4A40
:103B40001268002A08D0084A1068C318074A9A4227
:103B500006D3054A13607047034A05491160F2E72E
:103B600001204042F7E7C046800D002000000420FD
:103B7000B80F002010B5FFF7DFFF000010B582B0CE
:103B80000C001900002A0CD0084B002A0BD001921F
:103B9000009323000200064802F036FE0120FFF7E2
:103BA000CBFF044BF1E7034AF1E7C046588F001002
:103BB000688F0010648F001070B52B4B2B4A1A6071
:103BC0002B4B2C4A1A602C4B9A682A4B9343FAD100
:103BD0002A4C01E008CC9847294B9C42FAD3FFF7C6
:103BE00079FE234B274A1A60234B9B68DB43DB019A
:103BF000FAD1254B40229A675A671A67DA66234C36
:103C000009E0234B234A87212348FFF7B7FF200011
:103C1000FEF7AEFB0834214B9C4209D22368002BEF
:103C2000F5D0012BEDD12000FEF7AFFB0834F2E711
:103C30001B4CA1681B4DC022280002F08DFCA56022
:103C4000EFF30583002B00D000BEFEF761F9FEF70D
:103C500079FBFEF7E9FE144C01E008CC9847134BC2
:103C60009C42FAD370BDC04600E00040BFCDFBFED1
:103C700000F00040FE7F3C0000C00040780B0020B8
:103C8000880B0020FFFFFF0100F00140700B0020B7
:103C9000988F00101C900010B88F0010780B002037
:103CA00000ED00E000000020880B00208C0B0020BD
:103CB0000FB400B583B0084802F076FD049B002BDA
:103CC00007D005A90191180002F07EFD034802F01B
:103CD0006BFD0120FFF730FF0890001018900010D6
:103CE000704710B5002802D00B684968984710BD8E
:103CF0000100002007E083001B185B00501C0860D7
:103D00001078C01830380A681378303BDBB2092BC2
:103D1000F1D97047F0B5DE4657464E464546E0B508
:103D200083B093461F000C9B9A460D9C0E9B9946B0
:103D30000F9B9B0703D0B8460F00060022E00192BC
:103D4000A34688464E46B9460700B44207D2551CE2
:103D50004B4641462020B84701342A00F5E73D0094
:103D60004F465C46019B9B46B1464646B8463700E7
:103D70002E0007E0013C551C5346185D43463900B0
:103D8000B0472A00002CF5D135003E0047460F9B76
:103D90009B0707D4100003B0F0BCBB46B246A9464F
:103DA000A046F0BDB0464E46B9462F005D46531BB7
:103DB000B342EFD2541C4B4641462020B847220064
:103DC000F5E7F0B5CE46474680B585B094469846AF
:103DD0000C9D0D9C0EAB1B789946109A119B129E60
:103DE000B7071CD4002B0CD0F7070AD54F46002F7D
:103DF00002D10C37374204D0013B02E030272F5567
:103E00000134944201D21F2CF8D9F70707D59C4200
:103E100005D21F2C03D830272F550134F5E7F706BC
:103E200015D5770505D4002C03D0944224D09C42AC
:103E300022D00F9A102A2BD00F9A102A30D00F9A26
:103E4000022A35D01F2C02D830222A5501341F2CCB
:103E500005D84A46002A31D02D222A55013403962E
:103E600002930194009543466246FFF753FF05B065
:103E7000C0BCB946B046F0BD621E012C06D00F9FF3
:103E8000102F01D01400D4E7023CD2E71400D0E791
:103E9000B206D1D41F2CCFD878222A550134D1E7CD
:103EA000B206CCD51F2CCAD858222A550134C9E7EE
:103EB0001F2CC7D860322A550134C3E7720703D5D7
:103EC0002B222A550134CAE73207C8D520222A55A9
:103ED0000134C4E7F0B5DE4657464E464546E0B5E8
:103EE00093B081468A46089209931CAB10CB1B788D
:103EF0009B461E9D219B9846002C03D110234246D1
:103F00009A4390468023DB0046461E4042461A42B2
:103F100012D0002C22D000260EE03033D9B2771C0C
:103F20000AAB99552900200000F0D6FFAC4216D309
:103F30001F2F14D83E0004002900200000F0CCFF01
:103F4000CBB2092BE9D94246920605D54121C918C1
:103F5000C9B20A39C9B2E2E76121F8E7270043464E
:103F60000693209B05931F9B049303955B46029346
:103F700001970AAB0093099B089A51464846FFF700
:103F800020FF13B0F0BCBB46B246A946A046F0BD28
:103F9000F0B5DE4657464E464546E0B595B008902A
:103FA00009910A920B931E9E1F9C20AB1B789B4687
:103FB000229B9946239D269B9A463300234303D197
:103FC000103352469A4392468023DB0057461F40E7
:103FD00052461A4219D0330023432DD0002714E053
:103FE0003033DAB27B1C98460CABDA554A462B00CC
:103FF0003000210000F0AEFFA5421FD819D0434683
:104000001F2B1BD8474606000C004A462B003000E9
:10401000210000F09FFFD3B2092BE1D9524692064E
:1040200005D54122D218D2B20A3AD2B2DAE76122D9
:10403000F8E7B145E3D901E00023984653460693DB
:10404000259B0593249B04934B4603935B46029365
:10405000434601930CAB00930B9B0A9A099908986D
:10406000FFF7AFFE15B0F0BCBB46B246A946A0466E
:10407000F0BD0000F0B5DE4657464E464546E0B579
:1040800091B083468A460C9298461A9C08941B9DD0
:10409000099522002B002000290001F0F2F90028E8
:1040A00000D0E5E001225242D74B2000290001F068
:1040B000E3F9002800D0DBE001225242D34B20007C
:1040C000290001F0C3F9002800D0D1E0002200232C
:1040D000089E3000099D290001F0B8F9002800D0A1
:1040E000DDE008980999069007918023DB001E9A6D
:1040F0001A400D921E9A1A4201D106231C9306986B
:10410000079904000D000A000600024300D1D1E027
:10411000080D4005400DBE4CA44660440A03120B36
:10412000BC4B13431F0001F0BFF9BB4ABB4B01F06E
:104130004AF9BB4ABB4B01F01FF904000D000022F5
:10414000B94B3000390001F00EF9B84AB84B01F014
:104150003AF902000B002000290001F00DF901F0EE
:10416000BBF9814601F0A0F904000D00B14AB24B41
:1041700001F029F90022B14B01F0FEF801F0ACF991
:104180000600AF4AAF4B2000290001F01CF90400E3
:104190000D00300001F088F9AB4AAC4B01F013F987
:1041A00002000B002000290001F0DDF804000D00E2
:1041B00002000B0001F007F90A900B91A44BF318D1
:1041C00000261F0522002B002000290001F0D4F852
:1041D0000E900F9122002B0000208021C90501F0D4
:1041E000C2F804000D0000229A4B0A980B9901F0C6
:1041F000CCF80022984B01F0BFF802000B000A989F
:104200000B9901F0C2F80022944B01F0B5F80200BE
:104210000B000A980B9901F0B8F802000B0020007F
:10422000290001F0A9F802000B000E980F9901F087
:10423000ACF80022774B01F09FF832003B0001F010
:10424000C2F806000F0004000D00069A079B01F05B
:1042500013F9002830D001235B429C46E144002240
:104260007D4B3000390001F090F804000D0023E090
:104270001E9B04931D9B03931C9B0293089A099B0E
:104280000092019343460C9A5146584600F0FCF8C0
:1042900011B0F0BCBB46B246A946A046F0BD002313
:1042A000002406930794069680231B069C466544CB
:1042B00007951AE7002399464B466333C62B1ED851
:1042C00004261E9B1B0526D52B0023430FD0644AD2
:1042D000644B0698079901F0C7F8002879D00022AE
:1042E000614B0698079901F0B1F8002871D01C9B2A
:1042F0004B4506DD4A46981A431E1C9303E00526EB
:10430000DFE700231C938023DB001E9A1A431E92D2
:104310000026002399461D9B9E4264D29F1B0223C8
:104320001E9A1A400A921E9A134202D0002E00D002
:1043300000274B46002B07D022002B000698079938
:1043400001F023F8069007910022002308980999AC
:1043500001F07CF8002848D1444B1E9A1340049386
:1043600003971C9B0293069B079C00930194434672
:104370000C9A5146584600F087F8002E00D187E786
:104380001E9B9B063DD54525441C434602005146D5
:104390002800D8474B46DA179B1853400522059250
:1043A000013E0496002203920A3202924A46D00F3E
:1043B000019000934346220051465846FFF78AFD7C
:1043C0000A9B002B00D163E702005F460C9E1D9DF7
:1043D00054E01C9B002B9ED00D9B002B9BD01C9B64
:1043E000013B1C9397E7002799E7069C079D220055
:1043F000290080200006844661440B000692079342
:10440000AAE76525C0E7C046FFFFEF7FFFFFEFFF8C
:1044100001FCFFFF0000F03FFB799F501344D33FA6
:10442000B3C8608B288AC63F0000F83F61436F63C2
:10443000A787D23F71A379094F930A400000E03F5C
:104440001655B5BBB16B0240EF39FAFE422EE63F7E
:10445000FF03000000002C40000024400000184032
:104460002D431CEBE2361A3F80842E41FFF7FFFFFD
:10447000541C434651462020B8472200931BAB42B0
:10448000F6D3100004E7C046F0B5DE4657464E4668
:104490004546E0B595B00690079193469946209F12
:1044A0001E9A1F9B1000190000F0EBFF002831D16D
:1044B00001225242BF4B1E981F9900F0C7FF0028EF
:1044C00037D101225242BC4B1E981F9900F0D4FFF5
:1044D00000283DD10022B94B1E981F9900F0CCFF57
:1044E000002850D10022B64B1E981F9900F0AEFF55
:1044F000002848D1002200231E981F9900F0A6FF33
:10450000002850D100239846229B5B0500D4B6E0DA
:10451000002458E0229B0393219B029303230193E1
:10452000A84B00934B465A4607990698FFF7F2FBB3
:104530000EE1229B0393219B029304230193A24B40
:1045400000934B465A4607990698FFF7E3FBFFE0B6
:104550000423229A1A4022990B4210D09B4B002A26
:104560000FD0042222990391219902910192009384
:104570004B465A4607990698FFF7CCFBE8E0944B68
:10458000EDE70322EEE7229B0493219B039302971E
:104590001E9B1F9C009301944B465A460799069810
:1045A000FFF768FDD4E01E9A1F9B0020002100F059
:1045B000DAFE1E901F9101239846A5E70CAB30222E
:1045C0001A55013F01341F2C01D8092FF6D81E9827
:1045D0001F9900F081FF050000F066FF02000B004C
:1045E0001E981F9900F0BFFEFA007A4B9B181A68BC
:1045F0005B680A920B9300F0E6FE0890099100F0C8
:104600008FFF060000F04CFF02000B00089809998C
:1046100000F0A9FE0890099100226F4B00F02CFFDA
:1046200000282ED00136300000F03AFF02000B00C7
:104630000A980B9900F010FF002801D001350026E0
:10464000002F2CD1280000F02FFF02000B001E9835
:104650001F9900F088FE06000F0000225E4B00F05C
:10466000F5FE002846D100225B4B3000390000F0F7
:1046700003FF00283ED1EB073CD501353AE0062781
:1046800046E70022544B0898099900F0DFFE002805
:10469000D6D1002E01D0F307D2D50136D0E7AA46F5
:1046A0001F2C11D8013F0A21300000F015FC651CB9
:1046B00030310CAB19550A21300000F00DFC092EE9
:1046C0000ED906002C00EBE755461F2C0CD87B1E9C
:1046D000002F09D00CAA302111551F000134F4E736
:1046E0002B0055461C00F0E71F2C03D80CAB2E22E4
:1046F0001A5501341F2C10D80A21280000F0C4FBE1
:10470000661C30310CAB19550A21280000F0BCFBA7
:10471000051E01D03400EDE734000323229A134034
:10472000012B1CD01F2C06D84346002B32D00CABDB
:104730002D221A550134229B0393219B029301944D
:104740000CAB00934B465A4607990698FFF7E2FADE
:1047500015B0F0BCBB46B246A946A046F0BD219BB1
:10476000002B13D04346002B02D10C3313420FD041
:10477000219B013B2193190003E00CAB30221A5519
:1047800001348C42CED21F2CF7D9CBE72199F8E720
:104790002199F6E7229B5B0704D50CAB2B221A5517
:1047A0000134C8E7229B1B07C5D50CAB20221A5544
:1047B0000134C0E7FFFFEFFFFFFFEF7F65CDCD4185
:1047C00065CDCDC1389000103C90001030900010A5
:1047D0002C900010289200100000E03FF0B5DE465B
:1047E00057464E464546E0B593B082468B469046C6
:1047F0001193002900D1EBE200275546119B187850
:10480000002800D1E7E2252809D07C1C43463A0065
:104810005946A847119B013311932700EEE7013356
:1048200011930024119A11780B00203BD8B2102864
:1048300003D88300D048C3589F460B00303BDBB2FF
:10484000092B2CD92A292FD000230A93119B1A78DF
:104850002E2A39D000239A46119A1378683BD9B290
:10486000122976D88B00C549CB589F4601231C439B
:1048700001321192D6E702231C4301321192D1E793
:1048800004231C4301321192CCE708231C4301325C
:104890001192C7E710231C4301321192C2E711A8FD
:1048A000FFF726FA0A90D1E71C9B1A1D1C92186884
:1048B000002804DB0A90119B01331193C6E7022301
:1048C0001C4343420A93F6E78022D20014435A1C49
:1048D00011925A781300303BDBB2092B04D92A2AF3
:1048E00007D000239A46B7E711A8FFF701FA8246DE
:1048F000B2E71C9B1A1D1C921868002804DB824634
:10490000119B01331193A7E70020F8E780235B0098
:104910002343511C119152786C2A01D01C0018E0DD
:10492000C0239B001C430131119112E080232343DB
:10493000511C11915278682A01D01C0009E0C02353
:104940001C430131119104E080235B001C430132C0
:104950001192119B18780300253BDAB2532A00D933
:104960002CE29300864AD3589F4680239B001C4329
:1049700001321192EDE780235B001C43013211925A
:10498000E7E7782809D0582838D06F2838D062282F
:1049900038D010239C430A2600E01026582833D034
:1049A000692803D0642801D00C229443630501D503
:1049B0000122944369282AD0642828D0A30500D571
:1049C0009FE0E30500D5B8E0630600D4CAE01C9A76
:1049D000111D1C911168FF220A4005940A9B049343
:1049E00053460393029600230193009243463A00F4
:1049F00059462800FFF76EFA070027E01026CDE79A
:104A00000826CBE70226C9E720221443C8E7A305FE
:104A100020D4E30550D4630666D51C9A111D1C9161
:104A20001168FF220A40D317D118594005940A9BF8
:104A30000493534603930296D20F0192009143468A
:104A40003A0059462800FFF745FA0700119B013349
:104A50001193D3E61C9BDA1D07218A43110008310C
:104A60001C91116853689C46DB170C930D930C9AAC
:104A70000D9B100048400E90624653400F930E98D5
:104A80000F990C9A0D9B801A99410E900F910894E2
:104A90000A9B0793534606930496002305936346A7
:104AA000DA0F02920090019143463A0059462800DD
:104AB000FFF76EFA0700C9E71C9A111D1C911268D6
:104AC000D317D118594005940A9B04935346039376
:104AD0000296D20F0192009143463A0059462800AF
:104AE000FFF7F8F90700B1E7230605D51C9A111D59
:104AF0001C910023D25E96E71C9A111D1C9112682E
:104B000091E71C9BDA1D07218A43110008311C9193
:104B100008940A9B07935346069304960023059333
:104B20000293136854680093019443463A0059462F
:104B30002800FFF72DFA070088E71C9A111D1C9129
:104B400005940A9B04935346039302960023019312
:104B50001368009343463A0059462800FFF7BAF914
:104B6000070073E723060DD51C9A111D1C911268CE
:104B70001204120C31E7C0464490001088900010D7
:104B8000D49000101C9A111D1C91126825E746282C
:104B90001AD01C9B0733072293431A0008321C9239
:104BA00004940A9A0392524602925C681B6800932E
:104BB000019443463A0059462800FFF765FC070078
:104BC000119B0133119319E620231C43E1E7672869
:104BD00001D0472802D180231B011C43452801D066
:104BE000472801D120231C431C9B073307229343F2
:104BF0001A0008321C9204940A9A039252460292B6
:104C00005C681B680093019443463A0059462800AB
:104C1000FFF730FA0700119B01331193EEE50223F1
:104C20001A002240924623421FD001241C9B1A1DC9
:104C30001C927A1C9146187843463A005946A84778
:104C40005346002B16D1119B013311934F46D5E5E6
:104C5000561C434659462020B847230032005C1CAE
:104C60009D42F5D83D001700E0E701233A002F00F0
:104C70000A9DF4E74A46A9460A9D06E0571C4346AA
:104C800059462020C84734003A00661CA542F5D892
:104C90004D469146D7E71C9B1A1D1C921B689946EE
:104CA0005346002B00D1013B4E4601E00136130074
:104CB0003278002A02D05A1E002BF7D14B46F21A46
:104CC00010928023DB0026001E401C4203D0524578
:104CD00001D95346109302231A0022400B9223421B
:104CE00005D03A0037004C46A946554620E03A0028
:104CF000109B5F46B3462E0006E0551C4346390024
:104D00002020B04723002A005C1C0A999942F4D85D
:104D100035005E46BB46109437004C46A9465546C2
:104D200006E01D000134561C43465946C847320070
:104D30002078002804D0002FF4D06B1E002DF0D175
:104D400017004D460B9B002B03D1119B0133119390
:104D500054E50A9F109B06E0561C43465946202006
:104D6000A847230032005C1C9F42F5D81700ECE7EF
:104D700021231C431C9B1A1D1C921B680093059445
:104D800008230493534603931023029300230193B3
:104D900043463A0059462800FFF79CF80700119B4C
:104DA000013311932AE57C1C43463A0059462520DD
:104DB000A847119B0133119327001FE57C1C434634
:104DC0003A005946A847119B01331193270015E576
:104DD0000A4B9A4610E5AA46474502D343465A1E57
:104DE00000E03A00434659460020D047380013B04F
:104DF000F0BCBB46B246A946A046F0BDE13C00105F
:104E000000B585B0029003910121009313004A423E
:104E100002A90248FFF7E2FC05B000BDE33C001028
:104E200001480421014B1847F0020020514E0010A8
:104E300010B5010018231B8814221088984710BD54
:104E400010B5010018231B8816221088984710BD42
:104E5000F0B5C64600B507000E00002501239846B0
:104E600000E00135B5420AD2AC003C192068FFF7DA
:104E7000DFFF20600028F4D100239846F1E7404688
:104E800080BCB846F0BD0000124A936F9B0815D253
:104E90009066D166002905D0FFE7FFE7FFE7516F75
:104EA000106F704704B580210906C21751400028D1
:104EB00000D0C84302F024FC002104BDF0B5146EFC
:104EC000556E576F166FFFF7E3FF14665566576709
:104ED0001667F0BD000000D0114A936F9B0813D2F3
:104EE00010665166002905D0FFE7FFE7FFE7516F25
:104EF000106F704704B5002801D00020C04302F0B5
:104F0000FFFB002104BDC046F0B5146E556E576F0F
:104F1000166FFFF7E5FF1466556657671667F0BD15
:104F2000000000D094464A4A926F9208624601D22D
:104F300028E0C046F0B5464E346E756E776F366F1A
:104F400000F020F89446424A146655665767166783
:104F50006246F0BD94463E4A926F9208624601D284
:104F600054E0C046F0B53A4E346E756E776F366FCA
:104F700000F04CF89446364A146655665767166733
:104F80006246F0BD002B24DB11D000293EDA00B5CB
:104F9000C943404200D1013100F038F8C9434042D2
:104FA00000D10131DB43524200D1013300BD002A60
:104FB000EBD1002801D1002905D00020C90FC90775
:104FC00001D1C043410800B502F092FB002200234A
:104FD00000BD00B500290ADBDB43524200D101339A
:104FE00000F014F8C943404200D1013100BDC9436B
:104FF000404200D10131DB43524200D1013300F085
:1050000005F8DB43524200D1013300BD002923D112
:10501000002B18D1002A0CD0BC460D4F38667A669A
:1050200000210023FFE7FFE7FFE77A6F386F67464D
:105030007047002801D00748010000B502F058FB76
:105040000022002300BD02000B0000200021704759
:10505000000000D0FFFFFFFF002B00D0BFE0130CCB
:1050600028D1002AE7D080B4114F39667A66FFE76D
:10507000FFE730B4040C7B6F396F1B0423433B669E
:105080007A66FFE7FFE7FFE7C04684B27B6F3D6FBC
:105090001B0423433B667A66FFE7FFE7C046002315
:1050A0002C042D0C7A6F386F00196941B0BC704721
:1050B000000000D0F0B594460025140E01D1120274
:1050C0000835140F01D112010435940F01D192005B
:1050D0000235D40F01D152000135D40B0134254FD4
:1050E0007C66254C3C660E0C93B2FFE7FFE7FFE7BA
:1050F0003C6F6643360C7703BE467343DF0B5B049D
:10510000C01AB941130C7343DB18C91ACE086643A1
:10511000360CB64493B273431F0F1B01C01AB9413A
:10512000130C73431F0B1B05C01AB941860D8F0268
:105130003E436643360C092D24DB520A7243801A23
:105140007703460A6643360C16235B1BDE40DF40BE
:10515000BF1964466643821B70460435063301005E
:10516000D940A840C01900D30131A24206D2002381
:10517000F0BD0000000000D0FFFFFFFF121B013058
:10518000F3D3F1E709277F1BFE406446A2B27243C6
:10519000801A00D20139220C7243130C1204821AB5
:1051A00099410B007046043513370100F940A840BF
:1051B000801900D30131002B02D1A2420AD2F0BDE6
:1051C000013000D30131121BFAD2013BF8D1A242C7
:1051D00000D2F0BD013000D30131121BF7E7F0B56A
:1051E0001C0C00D080E00CB400251C0A04D11B026A
:1051F000160E3343120208351C0B04D11B01160F87
:105200003343120104359C0B04D19B00960F3343AA
:1052100092000235DC0B02D192185B4101351C0073
:10522000971864410134464F7C66464C3C660E0C30
:10523000FFE7FFE7FFE7C0463C6F6643360C7703A6
:10524000BE4697B27743C01B00D20139C01B00D2C3
:1052500001399FB27743C91BC91B170C77437E04E2
:10526000FF0B801BB941CE086643360C0C2D33DB97
:10527000B644120B1F053A431B0B97B27743C01B72
:1052800000D201399FB27743C91B170C77433E0404
:105290003F0C801BB941860D8F023E436643292790
:1052A0007F1BFE400C3D7746AF40BF1930BCA2B219
:1052B000ABB272437343801A9941220C7243130CB0
:1052C0001204801A994102000B000137001BA9410A
:1052D000F9D2781E0021F0BD0C277F1BFE407746D7
:1052E0007F0BAF40FF19E0E700245D1C07D0144F8F
:1052F0007D663966FFE7FFE7FFE7FFE73C6F95B2A2
:105300009EB265436643401BB141150C1E0C6543BC
:10531000664336042F0C3E432D04401BB141994295
:1053200004D202000B0020000021F0BD01D1904208
:10533000F7D3801A994101349942F2D3F6E700007D
:10534000000000D0FFFFFFFF44464D4656465F4633
:10535000F0B47047F0BCA046A946B246BB467047C1
:1053600048404140484018B41B4B5B68FC460193E1
:1053700008BD04DFE356001018B4174B1B68FC4649
:10538000019308BD00DFED5600109446134A926F5A
:10539000920809D2624618B40F4BDB68FC460193B1
:1053A00008BD0CDFA55900100C4AF0B5146E556EFF
:1053B000576F166F6246FFF7EEFF084A1466556690
:1053C00057671667F0BD18B4034B9B68FC46019302
:1053D00008BD08DF49580010940D0020000000D0DF
:1053E000FFB550404240504059404B40594000E0CA
:1053F000FFB5154F4C00640D03D0BC4204D10C0323
:1054000014D80020090D09055C00640D03D0BC42CE
:1054100004D11C030AD800221B0D1B0501264B409A
:1054200009D44B4003D58B4200D18242FFBD994243
:10543000FCD19042FFBD0B43DB1803431343F5D06F
:10544000C9434918FFBD0000FF07000000B5FFF782
:10545000CFFF804100BDC04600B5FFF7C9FF01D9AD
:10546000002000BD012000BD00B5FFF7B9FF01D944
:10547000002000BD012000BD00B5FFF7B1FF804155
:1054800000BD012040054A00121804D85A00121825
:1054900001D80020704701207047002070470000AD
:1054A0000021002805D17047C1174840401AFAD0A2
:1054B000C90713B5064B1B6898470CBC441CA24097
:1054C0001005120B0349091B09051943114310BDAF
:1054D000940E00201F04000010B54C00620D8023C4
:1054E000D218DB00D21A5B057E2A10DD9E3A13DA51
:1054F000CC170903490819435242D14064000134D2
:105500001532202A05DAD0400843604310BD002040
:1055100010BD0846604310BDC80FC018013810BD4B
:1055200018B4044B5B6AFC46019308BD24DF815D1F
:1055300000100000940D002018B4044BDB6FFC46F3
:10554000019308BD7CDF195E00100000940D00205F
:1055500018B4044B9B69FC46019308BD18DF715BCE
:1055600000100000940D002018B4044B9B6DFC4605
:10557000019308BD58DF9D6000100000940D0020CD
:1055800070B513231C78012C14D0012C14DC022CD0
:1055900002DC1F4A1F4B9A641F48FFF749FC1F4B50
:1055A000186070BD99001A481A4A885001331F2BA1
:1055B000F8D9EAE70023FAE71948FFF741FC0500AC
:1055C0001848FFF73DFC023803789B007F2B19DD5C
:1055D000802229000F4800F0BFFF022CD7D1124BC8
:1055E0001A88B5231B029A4209D1104B1A88104B16
:1055F0009A4204D10F4B1A880F4B9A42C7D0002011
:10560000FEF756FB0D4B0E4A32210E48FEF7B6FA56
:10561000A9560010940D00204C330000940E002079
:10562000534400005346000054380000D8380000AE
:10563000494600009C38000059460000789200104E
:1056400024930010CC920010F8B504000D00020065
:105650000B0000201249FFF786FE06000F00002213
:105660000F4B20002900FFF787FE02000B003000DF
:105670003900FFF7A8FE06000A000B0D5B0501D0FC
:1056800000290ADB30001100FFF762FF02000B0067
:1056900020002900FFF768FFF8BD00200149FBE763
:1056A0000000F03F0000F07F07B56046002800D101
:1056B00000BE01880A0A0230DF2AFAD1C9B2820884
:1056C00004D3028840880004104300E00068024AC6
:1056D0005050039007BD0000940D00200FB403BC90
:1056E0000CBCF0B50124E407634000E0F0B50C0DFC
:1056F000CF0F661E3605891B640503D3C94340429C
:1057000000D30131640D03D0661CF60A07D0E41BF8
:1057100000207F00791C89078912803C24031D0D1D
:10572000DF0F6E1E36059B1B6D0503D3DB43524214
:1057300000D301336D0D03D06E1CF60A07D0ED1BAC
:1057400000227F007B1C9B079B12803D2D032F1B9B
:10575000661B58D4A446202E46DA20371400BC40DD
:105760001D00BD40F24033412A4380185941CB0F00
:1057700005D0C943C04300226442504151416246B2
:105780004D0D28D10D0D07D100281FD024194041FF
:105790004941013A0D0DF9D0640006D3013000D320
:1057A0000131002C01D140084000013A0BD4941C77
:1057B000E40A04D112051144DB071944F0BDD907EE
:1057C000204B194300E0D9070020F0BD0029DDD1AE
:1057D000002CDBD1F0BD0132C6074008CD072843BD
:1057E0004908002EE1D0D9E73C2E29DA203E403787
:1057F0001400BC4000D00124F24014431A00BB4006
:105800001C43D317ACE7AC46202F08DA203604003F
:10581000B4400D00B540F84039412843A5E73C2F7E
:105820000CDA203F40360400B44000D00124F84098
:1058300004430800B1400C43C117EAE71000190007
:10584000002494E70000F07FF0B50C0D661E3605CD
:10585000891BE60A6405640D02D0651CED0A04D0BC
:10586000002001210905803C2403A4461C0D671E6D
:105870003F05DB1BE70A6405640D02D0651CED0AD9
:1058800004D0002201231B05803C2403774064449C
:1058900097B484B296B27443070C7E43150C6F43E1
:1058A00080B26843361802D3012000043F18300448
:1058B000350C00197D41844688B29AB250430C0CD5
:1058C00062431F0C7C438EB27E43921902D30126A1
:1058D0003604A4191604170C3618674101BC81B2AE
:1058E0009AB25143040C62431B0C5C4380B2584390
:1058F000121802D30120000424181004130C4018BD
:1059000063412D185E410020474106BC88B293B226
:1059100058430C0C6343120C544389B251435B1837
:1059200002D301210904641819041A0C09186241F0
:105930006D1856410020474118BCF902720D114301
:10594000F0026A0D1043ED020A0D03D16D194041BA
:105950004941013B124E9B1B7600B3420ED26D00B3
:1059600007D30130002671416646354301D1400816
:1059700040001B05C918E4072144F0BD0BDA0133D0
:1059800006D1013004D101314F0D01D04908F2E7B1
:10599000E1070020F0BD013631050020EBE70000F3
:1059A000FF030000F0B51C0D671E3F05DB1BE70A77
:1059B0006405640D02D0661CF60A04D0002201239F
:1059C0001B05803C2403D0252D060026F6432E66B9
:1059D0001E096E66CE0FF619B44649004F0D02D06F
:1059E0007E1CF60A03D000200021403F3F033E1BEF
:1059F000B600B444013F7F05C91B49082E6F01362C
:105A000076089C02950D25437543ED137543AD1340
:105A100001356D10F603761B0CB4CC02450D2C43FA
:105A2000A2B2B3B25A43270C7B43350C6F43A4B2E6
:105A30006C431B1902D3012424043F191C041D0CC0
:105A4000A4187D4124196D41009A91B2ACB2614312
:105A5000170C7C432B0C5F4392B25A43A41802D319
:105A600001221204BF182204230C52187B41019C0E
:105A70006C431B19520ED9010A434401A01A81B28A
:105A8000B2B2514303145A43360C734387B277437F
:105A9000D617D21900277E4136049B191704160C1D
:105AA0007F185E417316ED18F301002680337541AF
:105AB000A90F06D16400690AE8055B0A184309D2F8
:105AC0002FE00422944480337541A90AA8059B0A5B
:105AD000184326D3404149412404009A019B0D00FC
